:020000040800F2
:100000000028002005200008511E0008571E000887
:100010005D1E0008631E0008691E00080000000045
:100020000000000000000000000000006F1E00083B
:100030007B1E000800000000871E0008931E0008B9
:100040004D2000084D2000084D2000084D200008DC
:100050004D2000084D2000084D2000084D200008CC
:100060004D2000084D2000084D2000084D200008BC
:100070004D2000084D2000084D2000084D200008AC
:100080004D2000084D2000084D2000084D2000089C
:100090004D2000084D2000084D2000084D2000088C
:1000A0004D2000084D2000084D2000084D2000087C
:1000B000A11E00084D200008000000004D2000088F
:1000C0004D20000800000000000000004D20000846
:1000D000000000004D2000084D2000080000000036
:1000E0004D2000084D2000084D20000800000000B1
:1000F0000000000000000000000000000000000000
:0C01000000000000000000005FF808F1A3
:10010C0010B5054C237833B9044B13B10448AFF345
:10011C0000800123237010BDC000002000000000EF
:10012C000038000808B5034B1BB103490348AFF373
:10013C00008008BD00000000C4000020003800084A
:10014C0080B582B000AF78607B68022B16D07B68DC
:10015C00022B1ADC7B68002B03D07B68012B06D0AA
:10016C0013E080210B4802F057FA03460EE04FF4DF
:10017C008071084802F050FA034607E04FF4007112
:10018C00044802F049FA034600E0012318460837F8
:10019C00BD4680BD0008014080B483B000AF7860DC
:1001AC00094A7B6852F82330012B06D1064A7B683A
:1001BC00002142F82310012300E0002318460C37DD
:1001CC00BD4680BC704700BFDC00002080B582B00B
:1001DC0000AF7860334A7B6852F8232032497B6841
:1001EC0041F82320314A7B6852F823202D497B6843
:1001FC0041F823207868FFF7A3FF034619462B4AE2
:10020C007B6842F82310284A7B6852F82320254942
:10021C007B6851F823309A423FD1224A7B6852F8CE
:10022C00232022497B6851F823309A4235D11F4A4A
:10023C007B6852F823201E497B6851F823309A4280
:10024C0017D01A4A7B6852F8232019497B6841F869
:10025C002320164A7B6852F82330002B1DD1154AF7
:10026C007B68012142F82310C821786801F040FD19
:10027C0013E0786801F054FD0F4A7B6852F8233084
:10028C00012B0AD1094A7B6852F82330002B04D188
:10029C00074A7B68012142F8231000BF0837BD468E
:1002AC0080BD00BF0C0000200000002018000020C2
:1002BC0024000020DC0000209401002080B582B0D6
:1002CC0000AF00237B6005E07868FFF77FFF7B6859
:1002DC0001337B607B68022BF6DD00BF00BF083763
:1002EC00BD4680BD80B500AF534B1B68013B032B53
:1002FC0000F2968001A252F823F000BF1903000807
:10030C00550300089D030008E5030008002001F0D8
:10031C0007FE002001F016FE002001F025FE464BE2
:10032C0002221A60454B1B681946032001F0E0FCC1
:10033C00424B1B68424A82FB03125211DB17D31A41
:10034C00184601F043F974E0012001F0E9FD0020AA
:10035C0001F0F8FD002001F007FE01F0BBF9394B6C
:10036C00DB68012B60D1344B04221A60364B1B68BE
:10037C001946032001F0BCFC334B1B68304A82FB4E
:10038C0003125211DB17D31A184601F01FF94BE078
:10039C00002001F0C5FD012001F0D4FD002001F08A
:1003AC00E3FD01F097F9274BDB68012B3ED1224B83
:1003BC0002221A60214B1B681946032001F098FC9D
:1003CC001E4B1B681E4A82FB03125211DB17D31AF9
:1003DC00184601F0FBF829E0002001F0A1FD0020F7
:1003EC0001F0B0FD012001F0BFFD01F073F9154BD8
:1003FC00DB68012B1CD1104B03221A60134B1B68BA
:10040C001946032001F074FC104B1B680C4A82FB4C
:10041C0003125211DB17D31A184601F0D7F807E074
:10042C00054B01221A6004E000BF02E000BF00E0AF
:10043C0000BF00BF80BD00BFE800002030000020DE
:10044C001F85EB519401002038000020340000205F
:10045C0080B500AF534B1B68013B032B00F2968019
:10046C0001A252F823F000BF85040008C104000863
:10047C000905000851050008002001F087FD002047
:10048C0001F096FD002001F0A5FD464B04221A60F8
:10049C00454B1B681946042001F02AFC424B1B6893
:1004AC00424A82FB03125211DB17D31A184601F091
:1004BC00CFF874E0012001F069FD002001F078FD17
:1004CC00002001F087FD01F04FF9394B1B69012B1E
:1004DC0060D1344B04221A60334B1B68194604203C
:1004EC0001F006FC304B1B68304A82FB03125211A0
:1004FC00DB17D31A184601F0ABF84BE0002001F0E3
:10050C0045FD012001F054FD002001F063FD01F0D8
:10051C002BF9274B1B69012B3ED1224B02221A606F
:10052C00244B1B681946042001F0E2FB214B1B688D
:10053C001E4A82FB03125211DB17D31A184601F024
:10054C0087F829E0002001F021FD002001F030FDAA
:10055C00012001F03FFD01F007F9154B1B69012B40
:10056C001CD1104B03221A60134B1B681946042034
:10057C0001F0BEFB104B1B680C4A82FB031252119C
:10058C00DB17D31A184601F063F807E0054B01227C
:10059C001A6004E000BF02E000BF00E000BF00BF33
:1005AC0080BD00BFEC000020380000201F85EB51FF
:1005BC0094010020300000203400002080B500AFF2
:1005CC009D4B1B680A3B042B00F25F8201A252F880
:1005DC0023F000BFF50500081F06000851060008AF
:1005EC00AB0700083F090008944B1B68944A136042
:1005FC00944B1B68944A1360944B1B68944A136089
:10060C00944B01221A60944B01221A608A4B0B22E4
:10061C001A60002000F096FC002000F0CDFDFFF7E2
:10062C0061FEFFF715FF0020FFF7B6FD0346012B17
:10063C0040F02F82804B0C221A601921072001F008
:10064C0057FB26E2022000F061FA022000F06CFB5E
:10065C007B4B1B68814A82FB03129211DB17D31A66
:10066C00184600F06FFC764B1B687D4A82FB031228
:10067C005211DB17D21A7B4B83FB02139910D31741
:10068C00C91A0B469B000B445B00D11A084600F0BC
:10069C0093FD754BDB69012B3CD1744B1B68002B14
:1006AC001CD1012001F03CFC012001F06FFC00206A
:1006BC0001F048FC002001F07BFC002001F054FC10
:1006CC00002001F087FC1921072001F011FB674B7A
:1006DC001B68C3F10103654A13601BE0002001F0A5
:1006EC001FFC002001F052FC002001F02BFC00202C
:1006FC0001F05EFC002001F037FC002001F06AFCE8
:10070C001921072001F0F4FA584B1B68C3F10103BF
:10071C00564A13600120FFF73FFD0346012B25D1FC
:10072C00474B1B686433464A1360454B1B684B4A66
:10073C0082FB03129211DB17D31A184600F002FC4D
:10074C003F4B1B68464A82FB03125211DB17D21A2D
:10075C00444B83FB02139910D317C91A0B469B0009
:10076C000B445B00D11A084600F026FD0220FFF76F
:10077C0013FD0346012B03D1314B1B682F4A136029
:10078C000020FFF709FD0346012B40F084812B4B21
:10079C001B682B4A1360284B0D221A607BE1032047
:1007AC0000F0B4F9032000F0BFFA274B1B682B4A6A
:1007BC0082FB03129211DB17D31A184600F0C2FB0E
:1007CC00214B1B68264A82FB03125211DB17D21AEB
:1007DC00244B83FB02139910D317C91A0B469B00A9
:1007EC000B445B00D11A084600F0E6FC1E4BDB699B
:1007FC00012B59D11D4B1B68002B39D1002001F066
:10080C008FFB002001F0C2FB012001F09BFB0120BB
:10081C0001F0CEFB002001F0A7FB002001F0DAFB79
:10082C001921072001F064FA104B1B68C3F1010376
:10083C000E4A136038E000BFF000002030000020AA
:10084C003C00002034000020400000203800002034
:10085C0044000020E8000020EC000020D34D621082
:10086C001F85EB516766666694010020F40000203A
:10087C00002001F055FB002001F088FB002001F066
:10088C0061FB002001F094FB002001F06DFB0020C7
:10089C0001F0A0FB1921072001F02AFA814B1B68FB
:1008AC00C3F101037F4A13600120FFF775FC034677
:1008BC00012B25D17C4B1B6864337B4A13607A4B2C
:1008CC001B687A4A82FB03129211DB17D31A184663
:1008DC0000F038FB744B1B68754A82FB03125211F3
:1008EC00DB17D21A734B83FB02139910D317C91A57
:1008FC000B469B000B445B00D11A084600F05CFCD5
:10090C000220FFF749FC0346012B03D1664B1B6801
:10091C00694A13600020FFF73FFC0346012B40F0AF
:10092C00BC80654B1B68604A1360644B0E221A60D6
:10093C00B3E0042000F0EAF8042000F0F5F9604B75
:10094C001B685A4A82FB03129211DB17D31A184602
:10095C0000F0F8FA5A4B1B68554A82FB03125211ED
:10096C00DB17D21A534B83FB02139910D317C91AF6
:10097C000B469B000B445B00D11A084600F01CFC94
:10098C00504BDB69012B3CD1464B1B68002B1CD117
:10099C00002001F0C5FA002001F0F8FA002001F067
:1009AC00D1FA002001F004FB012001F0DDFA012056
:1009BC0001F010FB1921072001F09AF9394B1B6843
:1009CC00C3F10103374A13601BE0002001F0A8FAC1
:1009DC00002001F0DBFA002001F0B4FA002001F055
:1009EC00E7FA002001F0C0FA002001F0F3FA192117
:1009FC00072001F07DF92B4B1B68C3F10103294A39
:100A0C0013600120FFF7C8FB0346012B25D12C4BAB
:100A1C001B6864332A4A1360294B1B68234A82FBE8
:100A2C0003129211DB17D31A184600F08BFA244BE1
:100A3C001B681F4A82FB03125211DB17D21A1D4B83
:100A4C0083FB02139910D317C91A0B469B000B4456
:100A5C005B00D11A084600F0AFFB0220FFF79CFBAD
:100A6C000346012B03D1164B1B68174A1360002059
:100A7C00FFF792FB0346012B11D1134B1B68104A55
:100A8C0013600E4B0A221A6009E00C4B0A221A6002
:100A9C0006E000BF04E000BF02E000BF00E000BFC2
:100AAC0000BF80BDF400002040000020D34D621038
:100ABC001F85EB516766666634000020F00000204D
:100ACC0044000020940100203800002080B500AFC5
:100ADC000B4B01221A600B4B01221A600A4B0A22A3
:100AEC001A6064210A2001F003F92521082001F085
:100AFC00FFF81B21092001F0FBF800BF80BD00BFEF
:100B0C00E8000020EC000020F000002080B582B04E
:100B1C0000AF78607B68092B00F2EA8001A252F8E2
:100B2C0023F000BF590B0008830B0008AD0B000825
:100B3C00D70B0008010C00082B0C0008550C000802
:100B4C007F0C0008A90C0008D30C0008002201211E
:100B5C00744801F078FD00220221724801F073FD07
:100B6C00002204216F4801F06EFD002208216D481F
:100B7C0001F069FDD1E0012201216A4801F063FD19
:100B8C0000220221674801F05EFD00220421654825
:100B9C0001F059FD00220821624801F054FDBCE02F
:100BAC00002201215F4801F04EFD012202215D4827
:100BBC0001F049FD002204215A4801F044FD0022B5
:100BCC000821584801F03FFDA7E0012201215548BA
:100BDC0001F039FD01220221524801F034FD0022BE
:100BEC000421504801F02FFD002208214D4801F04E
:100BFC002AFD92E0002201214A4801F024FD002246
:100C0C000221484801F01FFD01220421454801F052
:100C1C001AFD00220821434801F015FD7DE0012258
:100C2C000121404801F00FFD002202213D4801F056
:100C3C000AFD012204213B4801F005FD0022082198
:100C4C00384801F000FD68E000220121354801F030
:100C5C00FAFC01220221334801F0F5FC01220421A7
:100C6C00304801F0F0FC002208212E4801F0EBFC8A
:100C7C0053E0012201212B4801F0E5FC0122022165
:100C8C00284801F0E0FC01220421264801F0DBFC9D
:100C9C0000220821234801F0D6FC3EE0002201216D
:100CAC00204801F0D0FC002202211E4801F0CBFCB0
:100CBC00002204211B4801F0C6FC0122082119481E
:100CCC0001F0C1FC29E001220121164801F0BBFC16
:100CDC0000220221134801F0B6FC00220421114825
:100CEC0001F0B1FC012208210E4801F0ACFC14E02B
:100CFC00002201210B4801F0A6FC00220221094828
:100D0C0001F0A1FC00220421064801F09CFC002209
:100D1C000821044801F097FC00BF00BF0837BD460E
:100D2C0080BD00BF000C014080B582B000AF786080
:100D3C007B68092B00F2EA8001A252F823F000BF75
:100D4C00750D00089F0D0008C90D0008F30D000873
:100D5C001D0E0008470E0008710E00089B0E0008BF
:100D6C00C50E0008EF0E000800221021744801F097
:100D7C006AFC00222021724801F065FC002240210F
:100D8C006F4801F060FC002280216D4801F05BFC93
:100D9C00D1E0012210216A4801F055FC00222021EB
:100DAC00674801F050FC00224021654801F04BFCE3
:100DBC0000228021624801F046FCBCE00022102198
:100DCC005F4801F040FC012220215D4801F03BFC12
:100DDC00002240215A4801F036FC0022802158485C
:100DEC0001F031FCA7E001221021554801F02BFC49
:100DFC0001222021524801F026FC002240215048BB
:100E0C0001F021FC002280214D4801F01CFC92E0F5
:100E1C00002210214A4801F016FC002220214848EB
:100E2C0001F011FC01224021454801F00CFC00228C
:100E3C008021434801F007FC7DE00122102140484D
:100E4C0001F001FC002220213D4801F0FCFB0122B5
:100E5C0040213B4801F0F7FB00228021384801F08B
:100E6C00F2FB68E000221021354801F0ECFB012276
:100E7C002021334801F0E7FB01224021304801F0EA
:100E8C00E2FB002280212E4801F0DDFB53E0012221
:100E9C0010212B4801F0D7FB01222021284801F01A
:100EAC00D2FB01224021264801F0CDFB00228021FB
:100EBC00234801F0C8FB3EE000221021204801F03D
:100ECC00C2FB002220211E4801F0BDFB0022402164
:100EDC001B4801F0B8FB01228021194801F0B3FB3B
:100EEC0029E001221021164801F0ADFB002220213F
:100EFC00134801F0A8FB00224021114801F0A3FB8C
:100F0C00012280210E4801F09EFB14E000221021EA
:100F1C000B4801F098FB00222021094801F093FBBB
:100F2C0000224021064801F08EFB0022802104485B
:100F3C0001F089FB00BF00BF0837BD4680BD00BF74
:100F4C00000C014080B582B000AF78607B68092B43
:100F5C0000F2128101A252F823F000BF910F000899
:100F6C00C30F0008F50F00082710000859100008DF
:100F7C008B100008BD100008EF10000821110008AC
:100F8C005311000800224FF480718A4801F05BFB7A
:100F9C0000224FF40071874801F055FB00224FF4FA
:100FAC008061844801F04FFB00224FF400618148BE
:100FBC0001F049FBF9E001224FF480717D4801F00A
:100FCC0042FB00224FF400717A4801F03CFB0022F6
:100FDC004FF48061774801F036FB00224FF400613A
:100FEC00744801F030FBE0E000224FF4807171484E
:100FFC0001F029FB01224FF400716E4801F023FB34
:10100C0000224FF480616B4801F01DFB00224FF46D
:10101C000061684801F017FBC7E001224FF48071B2
:10102C00644801F010FB01224FF40071614801F09B
:10103C000AFB00224FF480615E4801F004FB0022A1
:10104C004FF400615B4801F0FEFAAEE000224FF471
:10105C008071584801F0F7FA00224FF4007155489E
:10106C0001F0F1FA01224FF48061524801F0EBFAE1
:10107C0000224FF400614F4801F0E5FA95E001229F
:10108C004FF480714B4801F0DEFA00224FF40071EE
:10109C00484801F0D8FA01224FF48061454801F02C
:1010AC00D2FA00224FF40061424801F0CCFA7CE005
:1010BC0000224FF480713F4801F0C5FA01224FF431
:1010CC0000713C4801F0BFFA01224FF480613948AD
:1010DC0001F0B9FA00224FF40061364801F0B3FA7E
:1010EC0063E001224FF48071324801F0ACFA012226
:1010FC004FF400712F4801F0A6FA01224FF48061E1
:10110C002C4801F0A0FA00224FF40061294801F0AC
:10111C009AFA4AE000224FF48071264801F093FAC3
:10112C0000224FF40071234801F08DFA00224FF495
:10113C008061204801F087FA01224FF400611D48BC
:10114C0001F081FA31E001224FF48071194801F06D
:10115C007AFA00224FF40071164801F074FA00225A
:10116C004FF48061134801F06EFA01224FF40061D4
:10117C00104801F068FA18E000224FF480710D4815
:10118C0001F061FA00224FF400710A4801F05BFA99
:10119C0000224FF48061074801F055FA00224FF409
:1011AC000061044801F04FFA00BF00BF0837BD468C
:1011BC0080BD00BF000C014080B582B000AF7860EC
:1011CC007B68092B00F2128101A252F823F000BFB8
:1011DC000512000837120008691200089B1200085B
:1011EC00CD120008FF120008311300086313000829
:1011FC0095130008C713000800224FF480518A4849
:10120C0001F021FA00224FF40051874801F01BFA3B
:10121C0000224FF48041844801F015FA00224FF46B
:10122C000041814801F00FFAF9E001224FF480519E
:10123C007D4801F008FA00224FF400517A4801F081
:10124C0002FA00224FF48041774801F0FCF90022A9
:10125C004FF40041744801F0F6F9E0E000224FF43D
:10126C008051714801F0EFF901224FF400516E48A2
:10127C0001F0E9F900224FF480416B4801F0E3F9E9
:10128C0000224FF40041684801F0DDF9C7E001226B
:10129C004FF48051644801F0D6F901224FF400510B
:1012AC00614801F0D0F900224FF480415E4801F012
:1012BC00CAF900224FF400415B4801F0C4F9AEE0DA
:1012CC0000224FF48051584801F0BDF900224FF430
:1012DC000051554801F0B7F901224FF480415248B2
:1012EC0001F0B1F900224FF400414F4801F0ABF985
:1012FC0095E001224FF480514B4801F0A4F90022F3
:10130C004FF40051484801F09EF901224FF48041FE
:10131C00454801F098F900224FF40041424801F091
:10132C0092F97CE000224FF480513F4801F08BF998
:10133C0001224FF400513C4801F085F901224FF491
:10134C008041394801F07FF900224FF400413648C2
:10135C0001F079F963E001224FF48051324801F039
:10136C0072F901224FF400512F4801F06CF901225F
:10137C004FF480412C4801F066F900224FF40041F3
:10138C00294801F060F94AE000224FF480512648C8
:10139C0001F059F900224FF40051234801F053F9A0
:1013AC0000224FF48041204801F04DF901224FF406
:1013BC0000411D4801F047F931E001224FF4805102
:1013CC00194801F040F900224FF40051164801F081
:1013DC003AF900224FF48041134801F034F901220C
:1013EC004FF40041104801F02EF918E000224FF4A0
:1013FC0080510D4801F027F900224FF400510A48A2
:10140C0001F021F900224FF48041074801F01BF94B
:10141C0000224FF40041044801F015F900BF00BF51
:10142C000837BD4680BD00BF000C014080B500AF41
:10143C002C4B1B6A012B53D12B4B1B68012B28D136
:10144C00294B00221A60294B01221A60264B1B687B
:10145C00DBB21A464FF40061254801F0F4F8234B37
:10146C001B68DBB21A464FF48051214801F0EBF8AF
:10147C00204B1A68204B83FB02139910D317C91AFF
:10148C000B469B000B445B00D11A0846FFF73EFB52
:10149C0022E0154B01221A60144B00221A60124BE9
:1014AC001B68DBB21A464FF40061114801F0CBF80F
:1014BC000E4B1B68DBB21A464FF480510C4801F0FE
:1014CC00C2F80C4B1B680C4A82FB03129210DB1700
:1014DC00D31A1846FFF71AFB0A21082000F008FC63
:1014EC0000BF80BD940100200001002048000020B6
:1014FC0000080140F80000206766666680B500AF02
:10150C002C4B5B6A012B53D12B4B1B68012B28D125
:10151C00294B00221A60294B01221A60264B1B68AA
:10152C00DBB21A464FF40051254801F08CF8234BDE
:10153C001B68DBB21A464FF48041214801F083F856
:10154C00204B1A68204B83FB02139910D317C91A2E
:10155C000B469B000B445B00D11A0846FFF7E4FBDB
:10156C0022E0154B01221A60144B00221A60124B18
:10157C001B68DBB21A464FF40051114801F063F8B6
:10158C000E4B1B68DBB21A464FF480410C4801F03D
:10159C005AF80C4B1B680C4A82FB03129210DB1797
:1015AC00D31A1846FFF7C0FB0A21092000F0A0FB54
:1015BC0000BF80BD94010020040100204C000020DD
:1015CC0000080140FC0000206766666680B582B0AA
:1015DC0000AF7860194A7B681360194B00221A60BF
:1015EC00184B01221A60164B1B68DBB21A464FF4DB
:1015FC000061154801F027F8124B1B68DBB21A4644
:10160C004FF48051104801F01EF80C4B1A680F4B28
:10161C0083FB02139910D317C91A0B469B000B447A
:10162C005B00D11A0846FFF771FA6421052000F01F
:10163C005FFB00BF0837BD4680BD00BFF80000202F
:10164C000001002048000020000801406766666623
:10165C0080B582B000AF7860194A7B681360194B73
:10166C0000221A60184B01221A60164B1B68DBB261
:10167C001A464FF40051154800F0E5FF124B1B6859
:10168C00DBB21A464FF48041104800F0DCFF0C4BE3
:10169C001A680F4B83FB02139910D317C91A0B4608
:1016AC009B000B445B00D11A0846FFF73DFB6421FD
:1016BC00062000F01DFB00BF0837BD4680BD00BFF3
:1016CC00FC000020040100204C0000200008014018
:1016DC006766666680B500AFFFF7A8FE1C4B5B69BA
:1016EC00012B33D11B4B1B68013B1A4A136064213D
:1016FC00052000F0FDFA184B00221A60174B01224E
:10170C001A60154B1B68DBB21A464FF40061144883
:10171C0000F099FF114B1B68DBB21A464FF4805155
:10172C000F4800F090FF0B4B1A680E4B83FB021313
:10173C009910D317C91A0B469B000B445B00D11AA6
:10174C000846FFF7E3F9044B00221A6000BF80BD86
:10175C0094010020F8000020000100204800002027
:10176C00000801406766666680B500AFFFF7C6FEED
:10177C001B4B9B69012B30D11A4B1B68013B194A3F
:10178C0013606421062000F0B3FA174B00221A6094
:10179C00164B01221A60144B1B68DBB21A464FF42D
:1017AC000051134800F04FFF104B1B68DBB21A4678
:1017BC004FF480410E4800F046FF0A4B1A680D4B5F
:1017CC0083FB02139910D317C91A0B469B000B44C9
:1017DC005B00D11A0846FFF7A7FA00BF80BD00BF17
:1017EC0094010020FC000020040100204C0000208B
:1017FC00000801406766666680B500AF00F022FC09
:10180C0000F02AF800F0B0F800F062F800F020F9CF
:10181C0000220F210B4800F04DF90A220F210A4833
:10182C0000F048F90A220F21084800F043F9012280
:10183C000F21074800F03EF9064801F049FB00F083
:10184C00D1F9FCE7D90A00087D1D0008C90200087F
:10185C00C90500081401002080B590B000AF07F155
:10186C00180328220021184601F0F8FE3B1D002227
:10187C001A605A609A60DA601A610223BB61012314
:10188C00BB621023FB6200237B6307F1180318462D
:10189C0000F0F2FE0346002B01D000F0D3F80F232A
:1018AC007B600023BB600023FB6000233B610023B3
:1018BC007B613B1D0021184601F05EF90346002BAD
:1018CC0001D000F0BFF800BF4037BD4680BD00001E
:1018DC0080B586B000AF07F1080300221A605A6089
:1018EC009A60DA603B4600221A605A601D4B4FF03A
:1018FC0080421A601B4B40F21F325A60194B002277
:10190C009A60184B0922DA60164B00221A61154BAB
:10191C0000229A61134801F08BFA0346002B01D088
:10192C0000F090F84FF48053BB6007F108031946A0
:10193C000C4801F009FC0346002B01D000F082F8A2
:10194C0000233B6000237B603B461946054801F0B1
:10195C00E1FD0346002B01D000F074F800BF1837EE
:10196C00BD4680BD1401002080B586B000AF07F1E4
:10197C00080300221A605A609A60DA60294B9B694E
:10198C00284A43F004039361264B9B6903F004033C
:10199C007B607B68234B9B69224A43F0080393616D
:1019AC00204B9B6903F008033B603B68002247F621
:1019BC007E411D4800F047FE00224FF6FF711B4888
:1019CC0000F041FE47F67E43BB600123FB60002321
:1019DC003B6102237B6107F108031946124800F0B2
:1019EC00A1FC4FF46073BB600023FB6001233B61DF
:1019FC0007F1080319460C4800F094FC4FF6FF73EE
:101A0C00BB600123FB6000233B6102237B6107F178
:101A1C0008031946054800F085FC00BF1837BD4681
:101A2C0080BD00BF0010024000080140000C0140C6
:101A3C0080B582B000AF786000F01CF800BF0837AA
:101A4C00BD4680BD80B400AF72B600BFFEE700009B
:101A5C0080B500AF02E0002000F0ECF8044B1B68EE
:101A6C00002BF8D1024B00221A7200BF80BD00BFC0
:101A7C005C01002080B400AF0D4B1B68002B12D012
:101A8C000B4B1B685B68002B04D0094B1B685A6816
:101A9C00013A5A60064B1B685B68002B03D1044B60
:101AAC001B6801221A7300BFBD4680BC704700BF83
:101ABC005C01002080B586B000AFF860B9607A6038
:101ACC00474B1B7A272B01D9282385E01C2001F0DA
:101ADC00B5FD03463B613B69002B01D128237BE01C
:101AEC003B69FA681A603B697A689A603B69002224
:101AFC001A733B69BA685A603B6900225A613B69A8
:101B0C0000229A61364B1B7A002B06D1344A3B6972
:101B1C001360334A3B69536056E0314B1B687B6161
:101B2C003B695A687B695B689A4210D27B695A6838
:101B3C003B695B68D21A7B695A603B697A695A6166
:101B4C007B693A699A61264A3B6913603CE03B69C0
:101B5C005A687B695B68D21A3B695A600AE03B6938
:101B6C005A687B695B695B68D21A3B695A607B690E
:101B7C005B697B617B695B69002B06D03B695A68AA
:101B8C007B695B695B689A42E9D27B695A693B69FC
:101B9C005A613B697A699A617B695B69002B0DD04C
:101BAC007B695B693A699A617B695B6959683B69D6
:101BBC005A687B695B698A1A5A6002E0084A3B6979
:101BCC0053607B693A695A61054B1B7A0133DAB26F
:101BDC00034B1A72024B1B7A18461837BD4680BD50
:101BEC005C01002080B500AF114B1B681B7B012BE7
:101BFC001BD10F4B1B681B6898470D4B1B680022B1
:101C0C001A730B4B1B689B68002B0BD0084B1B6883
:101C1C001868074B1B689968054B1B689B681A462C
:101C2C00FFF748FF002000F005F800BF80BD00BFA3
:101C3C005C01002080B586B000AF0346FB71002329
:101C4C00FB732A4B1B683B610023FB7505E03B696A
:101C5C005B693B61FB7D0133FB75FA7DFB799A4235
:101C6C00F5D3224B1B683A699A420BD11F4B5B6828
:101C7C003A699A4206D11D4B00221A601B4B002276
:101C8C005A6025E0194B1B683A699A4208D13B69A6
:101C9C005B69164A1360154B1B6800229A6117E0AA
:101CAC00124B5B683A699A4208D13B699B690F4AAF
:101CBC0053600E4B5B6800225A6109E03B699B69DB
:101CCC003A6952695A613B695B693A6992699A61EE
:101CDC00386901F0BBFC054B1B7A013BDAB2034BB4
:101CEC001A72FB7B18461837BD4680BD5C0100207C
:101CFC0080B483B000AF7860396007497B683A687C
:101D0C0041F82320054A7B68002142F8231000BFCC
:101D1C000C37BD4680BC7047680100209401002040
:101D2C0080B483B000AF78600F4A7B6852F82330E0
:101D3C00002B13DD0C4A7B6852F823305A1E0A49DB
:101D4C007B6841F82320084A7B6852F82330002B2B
:101D5C0004DC064A7B68012142F8231000BF0C37D3
:101D6C00BD4680BC704700BF680100209401002074
:101D7C0080B582B000AF00237B6005E07868FFF788
:101D8C00CFFF7B6801337B607B680A2BF6DD00BFDD
:101D9C0000BF0837BD4680BD80B485B000AF154B81
:101DAC009B69144A43F001039361124B9B6903F046
:101DBC000103BB60BB680F4BDB690E4A43F08053D9
:101DCC00D3610C4BDB6903F080537B607B680A4B5F
:101DDC005B68FB60FB6823F0E063FB60FB6843F02F
:101DEC008063FB60044AFB68536000BF1437BD4638
:101DFC0080BC7047001002400000014080B584B0E8
:101E0C0000AF78607B681B68B3F1804F13D10C4B2B
:101E1C00DB690B4A43F00103D361094BDB6903F027
:101E2C000103FB60FB68002200211C2000F043FA38
:101E3C001C2000F05CFA00BF1037BD4680BD00BF0F
:101E4C000010024080B400AFFEE780B400AFFEE7A4
:101E5C0080B400AFFEE780B400AFFEE780B400AF03
:101E6C00FEE780B400AF00BFBD4680BC704780B4B5
:101E7C0000AF00BFBD4680BC704780B400AF00BF50
:101E8C00BD4680BC704780B500AF00F021F900BFA3
:101E9C0080BD000080B500AF024801F065F800BFBE
:101EAC0080BD00BF1401002080B586B000AF786003
:101EBC00144A154BD31A7B617B693B61134B1B682E
:101ECC00002B02D1114B124A1A60104B1A687B6816
:101EDC0013443A699A4207D201F086FB03460C225E
:101EEC001A604FF0FF3309E0084B1B68FB60074B8F
:101EFC001A687B681344054A1360FB681846183748
:101F0C00BD4680BD00280020000400000801002010
:101F1C00D801002080B400AF00BFBD4680BC704724
:101F2C0080B582B000AF78607B68DBB21A460221C4
:101F3C00034800F088FB00BF0837BD4680BD00BFDA
:101F4C000008014080B582B000AF78607B68DBB2DE
:101F5C001A460421034800F076FB00BF0837BD4643
:101F6C0080BD00BF0008014080B582B000AF786032
:101F7C007B68DBB21A460821034800F064FB00BF03
:101F8C000837BD4680BD00BF0008014080B582B057
:101F9C0000AF78607B68DBB21A461021034800F072
:101FAC0052FB00BF0837BD4680BD00BF0008014092
:101FBC0080B582B000AF78607B68DBB21A46202116
:101FCC00034800F040FB00BF0837BD4680BD00BF92
:101FDC000008014080B582B000AF78607B68DBB24E
:101FEC001A464021034800F02EFB00BF0837BD46BF
:101FFC0080BD00BF00080140FFF78CFF0B480C4967
:10200C000C4A002302E0D458C4500433C4188C4248
:10201C00F9D3094A094C002301E013600432A242AF
:10202C00FBD301F0E7FAFFF7E7FB70470000002055
:10203C00C000002044380008C0000020D40100205B
:10204C00FEE7000080B500AF084B1B68074A43F061
:10205C0010031360032000F023F90F2000F008F8A0
:10206C00FFF79AFE0023184680BD00BF00200240F7
:10207C0080B582B000AF7860124B1A68124B1B7897
:10208C0019464FF47A73B3FBF1F3B2FBF3F3184632
:10209C0000F03BF90346002B01D001230EE07B68D6
:1020AC000F2B0AD8002279684FF0FF3000F003F9AB
:1020BC00064A7B681360002300E0012318460837AA
:1020CC00BD4680BD50000020580000205400002068
:1020DC0080B400AF054B1B781A46054B1B681344A4
:1020EC00034A136000BFBD4680BC704758000020F7
:1020FC00C001002080B400AF024B1B681846BD46DF
:10210C0080BC7047C001002080B485B000AF7860FF
:10211C007B6803F00703FB600C4BDB68BB60BA68A1
:10212C004FF6FF031340BB60FB681A02BB681343F6
:10213C0043F0BF6343F40033BB60044ABB68D36015
:10214C0000BF1437BD4680BC704700BF00ED00E0F7
:10215C0080B400AF044BDB681B0A03F0070318467E
:10216C00BD4680BC704700BF00ED00E080B483B07A
:10217C0000AF0346FB7197F90730002B0BDBFB79A3
:10218C0003F01F02064997F907305B09012000FA9A
:10219C0002F241F8232000BF0C37BD4680BC7047CB
:1021AC0000E100E080B483B000AF03463960FB71FE
:1021BC0097F90730002B0ADB3B68DAB20C4997F928
:1021CC0007301201D2B20B4483F800230AE03B68BB
:1021DC00DAB20849FB7903F00F03043B1201D2B2C7
:1021EC000B441A7600BF0C37BD4680BC704700BF4D
:1021FC0000E100E000ED00E080B489B000AFF860D1
:10220C00B9607A60FB6803F00703FB61FB69C3F1FB
:10221C000703042B28BF0423BB61FB690433062B83
:10222C0002D9FB69033B00E000237B614FF0FF32D6
:10223C00BB6902FA03F3DA43BB681A407B699A4024
:10224C004FF0FF317B6901FA03F3D9437B680B40F4
:10225C00134318462437BD4680BC704780B582B006
:10226C0000AF78607B68013BB3F1807F01D3012321
:10227C000FE00A4A7B68013B53600F214FF0FF309F
:10228C00FFF790FF054B00229A60044B07221A605F
:10229C00002318460837BD4680BD00BF10E000E0A3
:1022AC0080B582B000AF78607868FFF72DFF00BF73
:1022BC000837BD4680BD80B586B000AF0346B96017
:1022CC007A60FB7300237B61FFF742FF78617A68C9
:1022DC00B9687869FFF790FF024697F90F301146FD
:1022EC001846FFF75FFF00BF1837BD4680BD80B5AD
:1022FC0082B000AF0346FB7197F907301846FFF721
:10230C0035FF00BF0837BD4680BD80B582B000AF39
:10231C0078607868FFF7A2FF034618460837BD4679
:10232C0080BD000080B48BB000AF786039600023B2
:10233C007B6200233B6248E101227B6A02FA03F3D1
:10234C00FB613B681B68FA691340BB61BA69FB69A6
:10235C009A4240F037813B685B68A34A93425ED057
:10236C00A14A934275D8A14A934258D09F4A9342AE
:10237C006FD89F4A934252D09D4A934269D89D4A46
:10238C0093424CD09B4A934263D89B4A934246D08B
:10239C00994A93425DD8122B2AD8122B59D801A2F4
:1023AC0052F823F02B2400080524000817240008F9
:1023BC00592400085F2400085F2400085F240008EB
:1023CC005F2400085F2400085F2400085F240008D5
:1023DC005F2400085F2400085F2400085F240008C5
:1023EC005F2400085F2400080D2400082124000845
:1023FC00824A934213D02CE03B68DB683B6229E0B5
:10240C003B68DB6804333B6224E03B68DB680833E1
:10241C003B621FE03B68DB680C333B621AE03B68B5
:10242C009B68002B02D104233B6213E03B689B6842
:10243C00012B05D108233B627B68FA691A6109E01C
:10244C0008233B627B68FA695A6103E000233B6214
:10245C0000E000BFBB69FF2B01D87B6801E07B6803
:10246C0004337B61BB69FF2B02D87B6A9B0002E0C3
:10247C007B6A083B9B003B617B691A680F213B69B7
:10248C0001FA03F3DB431A40396A3B6901FA03F39F
:10249C001A437B691A603B685B6803F08053002B1E
:1024AC0000F09080564B9B69554A43F001039361B1
:1024BC00534B9B6903F00103BB60BB68514A7B6AB9
:1024CC009B08023352F82330FB607B6A03F0030352
:1024DC009B000F2202FA03F3DB43FA681340FB6004
:1024EC007B68494A93420DD07B68484A934207D097
:1024FC007B68474A934201D1022304E0032302E0A4
:10250C00012300E000237A6A02F003029200934058
:10251C00FA681343FB603B497B6A9B080233FA68F9
:10252C0041F823203B685B6803F48013002B06D032
:10253C00384B9A683749BB6913438B6006E0354BBF
:10254C009A68BB69DB43334913408B603B685B681B
:10255C0003F40013002B06D02E4BDA682D49BB690F
:10256C001343CB6006E02B4BDA68BB69DB4329498C
:10257C001340CB603B685B6803F40033002B06D040
:10258C00244B5A682349BB6913434B6006E0214B2B
:10259C005A68BB69DB431F4913404B603B685B685F
:1025AC0003F48033002B06D01A4B1A681949BB6907
:1025BC0013430B6006E0174B1A68BB69DB431549E4
:1025CC0013400B607B6A01337B623B681A687B6A41
:1025DC0022FA03F3002B7FF4AFAE00BF00BF2C3701
:1025EC00BD4680BC704700BF0000321000003110A7
:1025FC000000221000002110000012100000111029
:10260C00001002400000014000080140000C014095
:10261C00001001400004014080B485B000AF786028
:10262C000B467B807B689A687B881340002B02D01A
:10263C000123FB7301E00023FB73FB7B184614376B
:10264C00BD4680BC704780B483B000AF78600B4649
:10265C007B8013467B707B78002B03D07A887B6859
:10266C001A6103E07B881A047B681A6100BF0C377F
:10267C00BD4680BC7047000080B586B000AF786066
:10268C007B68002B01D101236CE27B681B6803F093
:10269C000103002B00F08780924B5B6803F00C0366
:1026AC00042B0CD08F4B5B6803F00C03082B12D15E
:1026BC008C4B5B6803F48033B3F5803F0BD1894BB3
:1026CC001B6803F40033002B6CD07B685B68002B19
:1026DC0068D1012346E27B685B68B3F5803F06D185
:1026EC00804B1B687F4A43F4803313602EE07B6879
:1026FC005B68002B0CD17B4B1B687A4A23F480332C
:10270C001360784B1B68774A23F4802313601DE019
:10271C007B685B68B3F5A02F0CD1724B1B68714AB8
:10272C0043F4802313606F4B1B686E4A43F4803371
:10273C0013600BE06B4B1B686A4A23F48033136005
:10274C00684B1B68674A23F4802313607B685B68C3
:10275C00002B13D0FFF7CEFC386108E0FFF7CAFC62
:10276C0002463B69D31A642B01D90323FAE15D4B72
:10277C001B6803F40033002BF0D014E0FFF7BAFC15
:10278C00386108E0FFF7B6FC02463B69D31A642BAC
:10279C0001D90323E6E1534B1B6803F40033002BF0
:1027AC00F0D100E000BF7B681B6803F00203002B34
:1027BC0063D04C4B5B6803F00C03002B0BD0494BE4
:1027CC005B6803F00C03082B1CD1464B5B6803F4CD
:1027DC008033002B16D1434B1B6803F00203002BF4
:1027EC0005D07B681B69012B01D00123BAE13D4B5D
:1027FC001B6823F0F8027B685B69DB0039491343E3
:10280C000B603AE07B681B69002B20D0364B012211
:10281C001A60FFF76FFC386108E0FFF76BFC0246AB
:10282C003B69D31A022B01D903239BE12D4B1B6867
:10283C0003F00203002BF0D02A4B1B6823F0F802A4
:10284C007B685B69DB00274913430B6015E0264B63
:10285C0000221A60FFF74EFC386108E0FFF74AFCD3
:10286C0002463B69D31A022B01D903237AE11D4B93
:10287C001B6803F00203002BF0D17B681B6803F08C
:10288C000803002B3AD07B689B69002B19D0174B9F
:10289C0001221A60FFF72EFC386108E0FFF72AFCD2
:1028AC0002463B69D31A022B01D903235AE10D4B83
:1028BC005B6A03F00203002BF0D0012000F09AFABF
:1028CC001CE00A4B00221A60FFF714FC38610FE081
:1028DC00FFF710FC02463B69D31A022B08D90323DD
:1028EC0040E100BF0010024000004242800442421E
:1028FC009E4B5B6A03F00203002BE9D17B681B68DB
:10290C0003F00403002B00F0A6800023FB75974B0B
:10291C00DB6903F08053002B0DD1944BDB69934A98
:10292C0043F08053D361914BDB6903F08053BB6060
:10293C00BB680123FB758E4B1B6803F48073002B63
:10294C0018D18B4B1B688A4A43F480731360FFF7D2
:10295C00D1FB386108E0FFF7CDFB02463B69D31A87
:10296C00642B01D90323FDE0814B1B6803F48073B6
:10297C00002BF0D07B68DB68012B06D17B4B1B6AEC
:10298C007A4A43F0010313622DE07B68DB68002B6D
:10299C000CD1764B1B6A754A23F001031362734BFF
:1029AC001B6A724A23F0040313621CE07B68DB6829
:1029BC00052B0CD16D4B1B6A6C4A43F0040313625C
:1029CC006A4B1B6A694A43F0010313620BE0674BC5
:1029DC001B6A664A23F001031362644B1B6A634A49
:1029EC0023F0040313627B68DB68002B15D0FFF720
:1029FC0081FB38610AE0FFF77DFB02463B69D31A85
:102A0C0041F28832934201D90323ABE0574B1B6A46
:102A1C0003F00203002BEED014E0FFF76BFB3861E0
:102A2C000AE0FFF767FB02463B69D31A41F2883292
:102A3C00934201D9032395E04C4B1B6A03F002032C
:102A4C00002BEED1FB7D012B05D1484BDB69474AAE
:102A5C0023F08053D3617B68DB69002B00F081800D
:102A6C00424B5B6803F00C03082B61D07B68DB697D
:102A7C00022B46D13F4B00221A60FFF73BFB38611B
:102A8C0008E0FFF737FB02463B69D31A022B01D94A
:102A9C00032367E0354B1B6803F00073002BF0D168
:102AAC007B681B6AB3F5803F08D1304B5B6823F41D
:102ABC0000327B689B682D4913434B602B4B5B6842
:102ACC0023F474127B68196A7B685B6A0B43274991
:102ADC0013434B60274B01221A60FFF70BFB386145
:102AEC0008E0FFF707FB02463B69D31A022B01D91A
:102AFC00032337E01D4B1B6803F00073002BF0D051
:102B0C002FE01C4B00221A60FFF7F4FA386108E042
:102B1C00FFF7F0FA02463B69D31A022B01D90323C3
:102B2C0020E0124B1B6803F00073002BF0D118E06F
:102B3C007B68DB69012B01D1012313E00B4B5B6834
:102B4C00FB60FB6803F480327B681B6A9A4206D1F7
:102B5C00FB6803F470127B685B6A9A4201D0012314
:102B6C0000E0002318461837BD4680BD0010024017
:102B7C00007000406000424280B584B000AF7860C5
:102B8C0039607B68002B01D10123D0E06A4B1B68B4
:102B9C0003F007033A689A4210D9674B1B6823F07D
:102BAC00070265493B6813430B60634B1B6803F0DA
:102BBC0007033A689A4201D00123B8E07B681B688E
:102BCC0003F00203002B20D07B681B6803F0040386
:102BDC00002B05D0594B5B68584A43F4E0635360B3
:102BEC007B681B6803F00803002B05D0534B5B6814
:102BFC00524A43F460535360504B5B6823F0F0022D
:102C0C007B689B684D4913434B607B681B6803F0E2
:102C1C000103002B40D07B685B68012B07D1474B2D
:102C2C001B6803F40033002B15D101237FE07B6874
:102C3C005B68022B07D1414B1B6803F00073002B20
:102C4C0009D1012373E03D4B1B6803F00203002BF9
:102C5C0001D101236BE0394B5B6823F003027B68E5
:102C6C005B68364913434B60FFF744FAF8600AE09F
:102C7C00FFF740FA0246FB68D31A41F288329342BE
:102C8C0001D9032353E02D4B5B6803F00C027B68E6
:102C9C005B689B009A42EBD1274B1B6803F0070340
:102CAC003A689A4210D2244B1B6823F0070222493F
:102CBC003B6813430B60204B1B6803F007033A6817
:102CCC009A4201D0012332E07B681B6803F00403B5
:102CDC00002B08D0194B5B6823F4E0627B68DB683F
:102CEC00164913434B607B681B6803F00803002BE9
:102CFC0009D0124B5B6823F460527B681B69DB00C4
:102D0C000E4913434B6000F021F802460B4B5B68F5
:102D1C001B0903F00F030A49CB5C22FA03F3094A9F
:102D2C001360094B1B681846FFF7A2F900231846DD
:102D3C001037BD4680BD00BF00200240001002408D
:102D4C0018380008500000205400002080B487B0D0
:102D5C0000AF0023FB600023BB6000237B610023DA
:102D6C007B6000233B611E4B5B68FB60FB6803F0E0
:102D7C000C03042B02D0082B03D027E0194B3B612A
:102D8C0027E0FB689B0C03F00F03174AD35C7B60B6
:102D9C00FB6803F48033002B10D0114B5B685B0C89
:102DAC0003F00103114AD35CBB607B680D4A02FB44
:102DBC0003F2BB68B2FBF3F37B6104E07B680C4A63
:102DCC0002FB03F37B617B693B6102E0054B3B61DA
:102DDC0000BF3B6918461C37BD4680BC704700BF1E
:102DEC000010024000127A00283800083838000819
:102DFC0000093D0080B485B000AF78600A4B1B68B9
:102E0C000A4AA2FB03235B0A7A6802FB03F3FB600A
:102E1C0000BFFB685A1EFA60002BF9D100BF00BF3F
:102E2C001437BD4680BC704750000020D34D621053
:102E3C0080B582B000AF78607B68002B01D1012394
:102E4C0041E07B6893F83D30DBB2002B06D17B6808
:102E5C00002283F83C207868FEF7D0FF7B680222C2
:102E6C0083F83D207B681A687B680433194610464A
:102E7C0000F056FA7B68012283F846207B68012219
:102E8C0083F83E207B68012283F83F207B68012277
:102E9C0083F840207B68012283F841207B68012263
:102EAC0083F842207B68012283F843207B6801224F
:102EBC0083F844207B68012283F845207B6801223B
:102ECC0083F83D20002318460837BD4680BD00001E
:102EDC0080B485B000AF78607B6893F83D30DBB28E
:102EEC00012B01D0012335E07B68022283F83D20C1
:102EFC007B681B68DA687B681B6842F00102DA6049
:102F0C007B681B68164A934209D07B681B68B3F137
:102F1C00804F04D07B681B68124A934211D17B68A6
:102F2C001B689B6803F00703FB60FB68062B10D043
:102F3C007B681B681A687B681B6842F001021A6088
:102F4C0007E07B681B681A687B681B6842F001020B
:102F5C001A60002318461437BD4680BC704700BF6A
:102F6C00002C01400004004080B584B000AF7860B4
:102F7C007B681B68DB68FB607B681B681B69BB603C
:102F8C00BB6803F00203002B20D0FB6803F00203A4
:102F9C00002B1BD07B681B686FF002021A617B68E8
:102FAC0001221A777B681B689B6903F00303002BD3
:102FBC0003D0786800F098F905E0786800F08BF998
:102FCC00786800F09AF97B6800221A77BB6803F0E6
:102FDC000403002B20D0FB6803F00403002B1BD050
:102FEC007B681B686FF004021A617B6802221A77F7
:102FFC007B681B689B6903F44073002B03D07868D3
:10300C0000F072F905E0786800F065F9786800F076
:10301C0074F97B6800221A77BB6803F00803002B55
:10302C0020D0FB6803F00803002B1BD07B681B68C7
:10303C006FF008021A617B6804221A777B681B68A0
:10304C00DB6903F00303002B03D0786800F04CF924
:10305C0005E0786800F03FF9786800F04EF97B687D
:10306C0000221A77BB6803F01003002B20D0FB68FA
:10307C0003F01003002B1BD07B681B686FF0100251
:10308C001A617B6808221A777B681B68DB6903F47A
:10309C004073002B03D0786800F026F905E07868BF
:1030AC0000F019F9786800F028F97B6800221A778B
:1030BC00BB6803F00103002B0CD0FB6803F0010389
:1030CC00002B07D07B681B686FF001021A617868CF
:1030DC00FEF7AEFCBB6803F08003002B0CD0FB6842
:1030EC0003F08003002B07D07B681B686FF0800215
:1030FC001A61786800F06FFABB6803F04003002B8C
:10310C000CD0FB6803F04003002B07D07B681B68D6
:10311C006FF040021A61786800F0F8F8BB6803F0B1
:10312C002003002B0CD0FB6803F02003002B07D0EE
:10313C007B681B686FF020021A61786800F042FA15
:10314C0000BF1037BD4680BD80B584B000AF78603D
:10315C0039600023FB737B6893F83C30012B01D161
:10316C000223B4E07B68012283F83C207B680222B6
:10317C0083F83D207B681B689B68BB60BB6823F0B1
:10318C007703BB60BB6823F47F43BB607B681B6821
:10319C00BA689A603B681B68B3F5005F3ED0B3F524
:1031AC00005F00F28780B3F5805F00F08680B3F596
:1031BC00805F7FD8702B1AD0702B7BD8602B50D0AF
:1031CC00602B77D8502B3CD0502B73D8402B58D039
:1031DC00402B6FD8302B64D0302B6BD8202B60D089
:1031EC00202B67D8002B5CD0102B5AD062E07B6868
:1031FC0018683B6899683B685A683B68DB6800F064
:10320C006AF97B681B689B68BB60BB6843F07703FB
:10321C00BB607B681B68BA689A604FE07B68186873
:10322C003B6899683B685A683B68DB6800F053F967
:10323C007B681B689A687B681B6842F480429A60C2
:10324C003CE07B6818683B6859683B68DB681A4649
:10325C0000F0CAF87B681B685021184600F021F971
:10326C002CE07B6818683B6859683B68DB681A4639
:10327C0000F0E8F87B681B686021184600F011F933
:10328C001CE07B6818683B6859683B68DB681A4629
:10329C0000F0AAF87B681B684021184600F001F981
:1032AC000CE07B681A683B681B681946104600F0F6
:1032BC00F8F803E00123FB7300E000BF7B680122F8
:1032CC0083F83D207B68002283F83C20FB7B18466A
:1032DC001037BD4680BD80B483B000AF786000BFAE
:1032EC000C37BD4680BC704780B483B000AF7860AB
:1032FC0000BF0C37BD4680BC704780B483B000AFB4
:10330C00786000BF0C37BD4680BC704780B483B07A
:10331C0000AF786000BF0C37BD4680BC7047000022
:10332C0080B485B000AF786039607B681B68FB6047
:10333C007B682B4A934207D07B68B3F1804F03D054
:10334C007B68284A934208D1FB6823F07003FB602A
:10335C003B685B68FA681343FB607B68204A9342C6
:10336C0007D07B68B3F1804F03D07B681D4A934232
:10337C0008D1FB6823F44073FB603B68DB68FA6898
:10338C001343FB60FB6823F080023B685B691343CB
:10339C00FB607B68FA681A603B689A687B68DA6243
:1033AC003B681A687B689A627B680D4A934203D12A
:1033BC003B681A697B681A637B6801225A617B68D7
:1033CC001B6903F00103002B05D07B681B6923F0FC
:1033DC0001027B681A6100BF1437BD4680BC704780
:1033EC00002C01400004004080B487B000AFF860AE
:1033FC00B9607A60FB681B6A7B61FB681B6A23F00F
:10340C000102FB681A62FB689B693B613B6923F014
:10341C00F0033B617B681B013A6913433B617B6999
:10342C0023F00A037B617A69BB6813437B61FB68F9
:10343C003A699A61FB687A691A6200BF1C37BD460B
:10344C0080BC704780B487B000AFF860B9607A6018
:10345C00FB681B6A7B61FB681B6A23F01002FB682C
:10346C001A62FB689B693B613B6923F470433B61C7
:10347C007B681B033A6913433B617B6923F0A00310
:10348C007B61BB681B017A6913437B61FB683A69FA
:10349C009A61FB687A691A6200BF1C37BD4680BC12
:1034AC00704780B485B000AF786039607B689B68EA
:1034BC00FB60FB6823F07003FB603A68FB68134306
:1034CC0043F00703FB607B68FA689A6000BF14370F
:1034DC00BD4680BC704780B487B000AFF860B9605F
:1034EC007A603B60FB689B687B617B6923F47F435C
:1034FC007B613B681A027B681A43BB6813437A6989
:10350C0013437B61FB687A699A6000BF1C37BD4628
:10351C0080BC704780B485B000AF786039607B6840
:10352C0093F83C30012B01D1022341E07B6801224E
:10353C0083F83C207B68022283F83D207B681B6863
:10354C005B68FB607B681B689B68BB60FB6823F057
:10355C007003FB603B681B68FA681343FB607B6875
:10356C001B68FA685A607B681B68144A934209D03E
:10357C007B681B68B3F1804F04D07B681B68104AD2
:10358C0093420CD1BB6823F08003BB603B685B6843
:10359C00BA681343BB607B681B68BA689A607B6827
:1035AC00012283F83D207B68002283F83C20002315
:1035BC0018461437BD4680BC704700BF002C014034
:1035CC000004004080B483B000AF786000BF0C37BB
:1035DC00BD4680BC704780B483B000AF786000BF3C
:1035EC000C37BD4680BC7047014B1868704700BF54
:1035FC005C00002070B500260C4D0D4C641BA41013
:10360C00A64209D100F0F6F800260A4D0A4C641BBC
:10361C00A410A64205D170BD55F8043B984701365D
:10362C00EEE755F8043B98470136F2E73C380008C2
:10363C003C3800083C38000840380008024B014672
:10364C00186800F05FB800BF5C000020024B014618
:10365C00186800F00BB800BF5C0000200346024461
:10366C00934200D1704703F8011BF9E738B50546C2
:10367C00002943D051F8043C0C1F002BB8BFE418B0
:10368C0000F0AAF81E4A1368104633B96360146040
:10369C002846BDE8384000F0A5B8A3420AD92168F5
:1036AC006218934201BF1A685B685218226063600B
:1036BC000460EDE71A465B680BB1A342FAD91168B6
:1036CC005018A0420BD1206801445018834211605D
:1036DC00DED118685B68014411605360D8E702D9E9
:1036EC000C232B60D4E7206821188B4201BF19688A
:1036FC005B680918216063605460C9E738BD00BF7E
:10370C000C010020F8B5CD1C25F0030508350C2D57
:10371C0038BF0C25002D064601DBA94203D90C232A
:10372C0033600020F8BD00F057F821490A681446B0
:10373C009CB9204F3B6823B92146304600F03CF839
:10374C0038602946304600F037F8431C23D10C234F
:10375C003046336000F046F8E3E723685B1B17D470
:10376C000B2B03D923601C44256004E06368A24240
:10377C000CBF0B605360304600F034F804F10B00C2
:10378C00231D20F00700C21ACCD01B1AA350C9E786
:10379C0022466468CCE7C41C24F00304A042E3D0A6
:1037AC00211A304600F008F80130DDD1CFE700BF18
:1037BC000C0100201001002038B50023054D0446F3
:1037CC0008462B60FEF770FB431C02D12B6803B13B
:1037DC00236038BDC4010020014800F009B800BFC7
:1037EC00CC010020014800F004B800BFCC0100203F
:1037FC0070477047F8B500BFF8BC08BC9E467047D0
:0C380C00F8B500BFF8BC08BC9E46704731
:103818000000000000000000010203040607080978
:1038280002030405060708090A0B0C0D0E0F1010F9
:043838000102000089
:04383C00310100084E
:043840000D0100086E
:103844000100000000000000000000000100000072
:103854000000000000000000010000000000000063
:103864000000000001000000000000000000000053
:10387400F4010000C80000002C0100000100000059
:103884000100000001000000010000000100000030
:1038940000127A0010000000010000006000002007
:1038A4000000000000000000000000000000000014
:1038B4000000000000000000000000000000000004
:1038C40000000000000000000000000000000000F4
:1038D40000000000000000000000000000000000E4
:1038E40000000000000000000000000000000000D4
:1038F40000000000000000000000000000000000C4
:0400000508002005CA
:00000001FF
